{
  "contractName": "TodoList",
  "abi": [
    {
      "inputs": [
        {
          "internalType": "string",
          "name": "_owner",
          "type": "string"
        }
      ],
      "payable": false,
      "stateMutability": "nonpayable",
      "type": "constructor"
    },
    {
      "constant": true,
      "inputs": [],
      "name": "owner",
      "outputs": [
        {
          "internalType": "string",
          "name": "",
          "type": "string"
        }
      ],
      "payable": false,
      "stateMutability": "view",
      "type": "function"
    },
    {
      "constant": true,
      "inputs": [],
      "name": "taskCounter",
      "outputs": [
        {
          "internalType": "uint256",
          "name": "",
          "type": "uint256"
        }
      ],
      "payable": false,
      "stateMutability": "view",
      "type": "function"
    },
    {
      "constant": true,
      "inputs": [
        {
          "internalType": "uint256",
          "name": "",
          "type": "uint256"
        }
      ],
      "name": "tasks",
      "outputs": [
        {
          "internalType": "uint256",
          "name": "index",
          "type": "uint256"
        },
        {
          "internalType": "string",
          "name": "content",
          "type": "string"
        },
        {
          "internalType": "bool",
          "name": "completed",
          "type": "bool"
        },
        {
          "internalType": "uint256",
          "name": "timestamp",
          "type": "uint256"
        }
      ],
      "payable": false,
      "stateMutability": "view",
      "type": "function"
    },
    {
      "constant": false,
      "inputs": [
        {
          "internalType": "string",
          "name": "_content",
          "type": "string"
        }
      ],
      "name": "createTask",
      "outputs": [],
      "payable": false,
      "stateMutability": "nonpayable",
      "type": "function"
    },
    {
      "constant": false,
      "inputs": [
        {
          "internalType": "uint256",
          "name": "_index",
          "type": "uint256"
        }
      ],
      "name": "toggleTask",
      "outputs": [],
      "payable": false,
      "stateMutability": "nonpayable",
      "type": "function"
    }
  ],
  "bytecode": "0x6080604052600060015534801561001557600080fd5b506040516107ec3803806107ec8339818101604052602081101561003857600080fd5b810190808051604051939291908464010000000082111561005857600080fd5b8382019150602082018581111561006e57600080fd5b825186600182028301116401000000008211171561008b57600080fd5b8083526020830192505050908051906020019080838360005b838110156100bf5780820151818401526020810190506100a4565b50505050905090810190601f1680156100ec5780820380516001836020036101000a031916815260200191505b506040525050508060009080519060200190610109929190610110565b50506101b5565b828054600181600116156101000203166002900490600052602060002090601f016020900481019282601f1061015157805160ff191683800117855561017f565b8280016001018555821561017f579182015b8281111561017e578251825591602001919060010190610163565b5b50905061018c9190610190565b5090565b6101b291905b808211156101ae576000816000905550600101610196565b5090565b90565b610628806101c46000396000f3fe608060405234801561001057600080fd5b50600436106100575760003560e01c8063111002aa1461005c5780635867173014610117578063613137a4146101355780638d977672146101635780638da5cb5b14610223575b600080fd5b6101156004803603602081101561007257600080fd5b810190808035906020019064010000000081111561008f57600080fd5b8201836020820111156100a157600080fd5b803590602001918460018302840111640100000000831117156100c357600080fd5b91908080601f016020809104026020016040519081016040528093929190818152602001838380828437600081840152601f19601f8201169050808301925050505050505091929192905050506102a6565b005b61011f610356565b6040518082815260200191505060405180910390f35b6101616004803603602081101561014b57600080fd5b810190808035906020019092919050505061035c565b005b61018f6004803603602081101561017957600080fd5b81019080803590602001909291905050506103b1565b604051808581526020018060200184151515158152602001838152602001828103825285818151815260200191508051906020019080838360005b838110156101e55780820151818401526020810190506101ca565b50505050905090810190601f1680156102125780820380516001836020036101000a031916815260200191505b509550505050505060405180910390f35b61022b610486565b6040518080602001828103825283818151815260200191508051906020019080838360005b8381101561026b578082015181840152602081019050610250565b50505050905090810190601f1680156102985780820380516001836020036101000a031916815260200191505b509250505060405180910390f35b6001600081548092919060010191905055506102c0610524565b604051806080016040528060015481526020018381526020016000151581526020014281525090508060026000600154815260200190815260200160002060008201518160000155602082015181600101908051906020019061032492919061054e565b5060408201518160020160006101000a81548160ff021916908315150217905550606082015181600301559050505050565b60015481565b6002600082815260200190815260200160002060020160009054906101000a900460ff16156002600083815260200190815260200160002060020160006101000a81548160ff02191690831515021790555050565b6002602052806000526040600020600091509050806000015490806001018054600181600116156101000203166002900480601f0160208091040260200160405190810160405280929190818152602001828054600181600116156101000203166002900480156104635780601f1061043857610100808354040283529160200191610463565b820191906000526020600020905b81548152906001019060200180831161044657829003601f168201915b5050505050908060020160009054906101000a900460ff16908060030154905084565b60008054600181600116156101000203166002900480601f01602080910402602001604051908101604052809291908181526020018280546001816001161561010002031660029004801561051c5780601f106104f15761010080835404028352916020019161051c565b820191906000526020600020905b8154815290600101906020018083116104ff57829003601f168201915b505050505081565b60405180608001604052806000815260200160608152602001600015158152602001600081525090565b828054600181600116156101000203166002900490600052602060002090601f016020900481019282601f1061058f57805160ff19168380011785556105bd565b828001600101855582156105bd579182015b828111156105bc5782518255916020019190600101906105a1565b5b5090506105ca91906105ce565b5090565b6105f091905b808211156105ec5760008160009055506001016105d4565b5090565b9056fea265627a7a7231582096ed201b3478caa93f553efd65340dc362344f23f0ecbc1e9f7155bc57a31ab564736f6c63430005100032",
  "source": "pragma solidity >=0.5.0<= 0.7.0;\n\n\ncontract TodoList {\n\n  string public owner;\n\n  uint public taskCounter = 0;\n\n  struct Task {\n    uint index;\n    string content;\n    bool completed;\n    uint timestamp;\n  }\n\n  mapping(uint=>Task) public tasks;\n\n\n  constructor(string memory _owner) public {\n\n    owner = _owner;\n  }\n\n\n  function createTask(string memory _content) public {\n\n    taskCounter ++;\n    Task memory task = Task(taskCounter, _content, false, block.timestamp);\n\n    tasks[taskCounter] = task;\n\n  }\n\n  function toggleTask(uint _index) public {\n\n    tasks[_index].completed = ! tasks[_index].completed;\n\n  }\n\n\n\n}\n\n",
  "sourcePath": "/home/koshik/Documents/projects/consensolabs/dapp-boilerplate/contracts/contracts/TodoList.sol",
  "compiler": {
    "name": "solc",
    "version": "0.5.16+commit.9c3226ce.Emscripten.clang"
  },
  "schemaVersion": "3.0.23",
  "updatedAt": "2020-04-30T16:13:32.646Z",
  "devdoc": {
    "methods": {}
  },
  "userdoc": {
    "methods": {}
  }
}