{
  "contractName": "Counter",
  "abi": [
    {
      "inputs": [
        {
          "internalType": "uint256",
          "name": "num",
          "type": "uint256"
        }
      ],
      "stateMutability": "nonpayable",
      "type": "constructor"
    },
    {
      "inputs": [],
      "name": "owner",
      "outputs": [
        {
          "internalType": "address",
          "name": "",
          "type": "address"
        }
      ],
      "stateMutability": "view",
      "type": "function",
      "constant": true
    },
    {
      "inputs": [],
      "name": "getCounter",
      "outputs": [
        {
          "internalType": "uint256",
          "name": "",
          "type": "uint256"
        }
      ],
      "stateMutability": "view",
      "type": "function",
      "constant": true
    },
    {
      "inputs": [
        {
          "internalType": "uint256",
          "name": "amount",
          "type": "uint256"
        }
      ],
      "name": "increaseCounter",
      "outputs": [],
      "stateMutability": "nonpayable",
      "type": "function"
    },
    {
      "inputs": [
        {
          "internalType": "uint256",
          "name": "amount",
          "type": "uint256"
        }
      ],
      "name": "decreaseCounter",
      "outputs": [
        {
          "internalType": "bool",
          "name": "",
          "type": "bool"
        }
      ],
      "stateMutability": "nonpayable",
      "type": "function"
    }
  ],
  "bytecode": "0x608060405234801561001057600080fd5b506040516101ef3803806101ef8339818101604052602081101561003357600080fd5b5051600180546001600160a01b03191633179055600055610196806100596000396000f3fe608060405234801561001057600080fd5b506004361061004c5760003560e01c80638ada066e146100515780638da5cb5b1461006b5780639e80c0741461008f578063b24f03af146100ae575b600080fd5b6100596100df565b60408051918252519081900360200190f35b6100736100e5565b604080516001600160a01b039092168252519081900360200190f35b6100ac600480360360208110156100a557600080fd5b50356100f4565b005b6100cb600480360360208110156100c457600080fd5b50356100ff565b604080519115158252519081900360200190f35b60005490565b6001546001600160a01b031690565b600080549091019055565b60008160005411610150576040805162461bcd60e51b8152602060048201526016602482015275043616e6e6f74206265206c6f776572207468616e20360541b604482015290519081900360640190fd5b506000805491909103905560019056fea2646970667358221220e19238205ef93431cc51b5d02829768d3b3ab690bcc47e540289af71b7b3838664736f6c63430006060033",
  "source": "pragma solidity >=0.5.0<= 0.7.0;\r\n\r\ncontract Counter {\r\n  //it keeps a count to demonstrate stage changes\r\n  uint private count;\r\n  address private _owner;\r\n\r\n  constructor(uint num) public  {\r\n    _owner = msg.sender;\r\n    count = num;\r\n  }\r\n\r\n\r\n  function owner() public view returns (address) {\r\n    return _owner;\r\n  }\r\n\r\n  // getter\r\n  function getCounter() public view returns (uint) {\r\n    return count;\r\n  }\r\n\r\n  //and it can add to a count\r\n  function increaseCounter(uint256 amount) public {\r\n    count = count + amount;\r\n  }\r\n\r\n  //We'll upgrade the contract with this function after deploying it\r\n  //Function to decrease the counter\r\n  function decreaseCounter(uint256 amount) public returns (bool) {\r\n    require(count > amount, \"Cannot be lower than 0\");\r\n    count = count - amount;\r\n    return true;\r\n  }\r\n\r\n}\r\n",
  "sourcePath": "C:\\Users\\abhinavanshul\\dapp-boilerplate\\contracts\\contracts\\Counter.sol",
  "compiler": {
    "name": "solc",
    "version": "0.6.6+commit.6c089d02.Emscripten.clang"
  },
  "schemaVersion": "3.0.23",
  "updatedAt": "2020-05-05T07:55:37.617Z",
  "networkType": "ethereum",
  "devdoc": {
    "methods": {}
  },
  "userdoc": {
    "methods": {}
  }
}