{
  "contractName": "TodoList",
  "abi": [
    {
      "inputs": [
        {
          "internalType": "string",
          "name": "_owner",
          "type": "string"
        }
      ],
      "stateMutability": "nonpayable",
      "type": "constructor"
    },
    {
      "inputs": [],
      "name": "owner",
      "outputs": [
        {
          "internalType": "string",
          "name": "",
          "type": "string"
        }
      ],
      "stateMutability": "view",
      "type": "function",
      "constant": true
    },
    {
      "inputs": [],
      "name": "taskCounter",
      "outputs": [
        {
          "internalType": "uint256",
          "name": "",
          "type": "uint256"
        }
      ],
      "stateMutability": "view",
      "type": "function",
      "constant": true
    },
    {
      "inputs": [
        {
          "internalType": "uint256",
          "name": "",
          "type": "uint256"
        }
      ],
      "name": "tasks",
      "outputs": [
        {
          "internalType": "uint256",
          "name": "index",
          "type": "uint256"
        },
        {
          "internalType": "string",
          "name": "content",
          "type": "string"
        },
        {
          "internalType": "bool",
          "name": "completed",
          "type": "bool"
        },
        {
          "internalType": "uint256",
          "name": "timestamp",
          "type": "uint256"
        }
      ],
      "stateMutability": "view",
      "type": "function",
      "constant": true
    },
    {
      "inputs": [
        {
          "internalType": "string",
          "name": "_content",
          "type": "string"
        }
      ],
      "name": "createTask",
      "outputs": [],
      "stateMutability": "nonpayable",
      "type": "function"
    },
    {
      "inputs": [
        {
          "internalType": "uint256",
          "name": "_index",
          "type": "uint256"
        }
      ],
      "name": "toggleTask",
      "outputs": [],
      "stateMutability": "nonpayable",
      "type": "function"
    }
  ],
  "bytecode": "0x6080604052600060015534801561001557600080fd5b506040516107033803806107038339818101604052602081101561003857600080fd5b810190808051604051939291908464010000000082111561005857600080fd5b90830190602082018581111561006d57600080fd5b825164010000000081118282018810171561008757600080fd5b82525081516020918201929091019080838360005b838110156100b457818101518382015260200161009c565b50505050905090810190601f1680156100e15780820380516001836020036101000a031916815260200191505b50604052505081516100fb91506000906020840190610102565b505061019d565b828054600181600116156101000203166002900490600052602060002090601f016020900481019282601f1061014357805160ff1916838001178555610170565b82800160010185558215610170579182015b82811115610170578251825591602001919060010190610155565b5061017c929150610180565b5090565b61019a91905b8082111561017c5760008155600101610186565b90565b610557806101ac6000396000f3fe608060405234801561001057600080fd5b50600436106100575760003560e01c8063111002aa1461005c5780635867173014610104578063613137a41461011e5780638d9776721461013b5780638da5cb5b146101e9575b600080fd5b6101026004803603602081101561007257600080fd5b81019060208101813564010000000081111561008d57600080fd5b82018360208201111561009f57600080fd5b803590602001918460018302840111640100000000831117156100c157600080fd5b91908080601f016020809104026020016040519081016040528093929190818152602001838380828437600092019190915250929550610266945050505050565b005b61010c6102ef565b60408051918252519081900360200190f35b6101026004803603602081101561013457600080fd5b50356102f5565b6101586004803603602081101561015157600080fd5b5035610319565b604051808581526020018060200184151515158152602001838152602001828103825285818151815260200191508051906020019080838360005b838110156101ab578181015183820152602001610193565b50505050905090810190601f1680156101d85780820380516001836020036101000a031916815260200191505b509550505050505060405180910390f35b6101f16103ce565b6040805160208082528351818301528351919283929083019185019080838360005b8381101561022b578181015183820152602001610213565b50505050905090810190601f1680156102585780820380516001836020036101000a031916815260200191505b509250505060405180910390f35b600180548101905561027661045c565b50604080516080810182526001805480835260208084018681526000858701819052426060870152928352600282529490912083518155935180519394859490936102c693908501920190610486565b50604082015160028201805460ff19169115159190911790556060909101516003909101555050565b60015481565b600090815260026020819052604090912001805460ff19811660ff90911615179055565b60026020818152600092835260409283902080546001808301805487519281161561010002600019011695909504601f81018590048502820185019096528581529094919390929091908301828280156103b45780601f10610389576101008083540402835291602001916103b4565b820191906000526020600020905b81548152906001019060200180831161039757829003601f168201915b505050506002830154600390930154919260ff1691905084565b6000805460408051602060026001851615610100026000190190941693909304601f810184900484028201840190925281815292918301828280156104545780601f1061042957610100808354040283529160200191610454565b820191906000526020600020905b81548152906001019060200180831161043757829003601f168201915b505050505081565b60405180608001604052806000815260200160608152602001600015158152602001600081525090565b828054600181600116156101000203166002900490600052602060002090601f016020900481019282601f106104c757805160ff19168380011785556104f4565b828001600101855582156104f4579182015b828111156104f45782518255916020019190600101906104d9565b50610500929150610504565b5090565b61051e91905b80821115610500576000815560010161050a565b9056fea2646970667358221220eccd5360b4ca26c4cdeb75743e95c1aec5aa0ed7504e568872bf74c6e3f2b62664736f6c63430006060033",
  "source": "pragma solidity >=0.5.0<= 0.7.0;\r\n\r\n\r\ncontract TodoList {\r\n\r\n  string public owner;\r\n\r\n  uint public taskCounter = 0;\r\n\r\n  struct Task {\r\n    uint index;\r\n    string content;\r\n    bool completed;\r\n    uint timestamp;\r\n  }\r\n\r\n  mapping(uint=>Task) public tasks;\r\n\r\n\r\n  constructor(string memory _owner) public {\r\n\r\n    owner = _owner;\r\n  }\r\n\r\n\r\n  function createTask(string memory _content) public {\r\n\r\n    taskCounter ++;\r\n    Task memory task = Task(taskCounter, _content, false, block.timestamp);\r\n\r\n    tasks[taskCounter] = task;\r\n\r\n  }\r\n\r\n  function toggleTask(uint _index) public {\r\n\r\n    tasks[_index].completed = ! tasks[_index].completed;\r\n\r\n  }\r\n\r\n\r\n\r\n}\r\n\r\n",
  "sourcePath": "C:\\Users\\abhinavanshul\\dapp-boilerplate\\contracts\\contracts\\TodoList.sol",
  "compiler": {
    "name": "solc",
    "version": "0.6.6+commit.6c089d02.Emscripten.clang"
  },
  "schemaVersion": "3.0.23",
  "updatedAt": "2020-05-05T07:55:37.612Z",
  "networkType": "ethereum",
  "devdoc": {
    "methods": {}
  },
  "userdoc": {
    "methods": {}
  }
}